:100000000C9462000C948A000C948A000C948A0070
:100010000C948A000C948A000C948A000C948A0038
:100020000C948A000C948A000C948A000C948A0028
:100030000C948A000C948A000C948A000C948A0018
:100040000C94FB060C948A000C948A000C948A0091
:100050000C948A000C948A000C948A000C948A00F8
:100060000C948A000C948A000000000024002700F1
:100070002A0000000000250028002B0000000000DE
:1000800023002600290004040404040404040202DA
:100090000202020203030303030301020408102007
:1000A0004080010204081020010204081020000012
:1000B0000008000201000003040700000000000027
:1000C0000000FC0911241FBECFEFD8E0DEBFCDBF7A
:1000D00013E0A0E0B1E0EAE8F4E102C005900D927F
:1000E000A239B107D9F723E0A2E9B3E001C01D921C
:1000F000A33CB207E1F710E0C2E6D0E004C02197CC
:10010000FE010E943D0AC136D107C9F70E9445078A
:100110000C94430A0C940000AF92BF92CF92DF92EE
:10012000EF92FF920F931F93CF93DF936C017B01AC
:100130008B01040F151FEB015E01AE18BF08C0173D
:10014000D10759F06991D601ED91FC910190F081B0
:10015000E02DC6010995892B79F7C501DF91CF9173
:100160001F910F91FF90EF90DF90CF90BF90AF90D5
:100170000895833081F028F4813099F08230A9F01D
:1001800008958730A9F08830C9F08430B1F48091A7
:1001900080008F7D03C0809180008F7780938000E6
:1001A000089584B58F7784BD089584B58F7DFBCF86
:1001B0008091B0008F778093B00008958091B00057
:1001C0008F7DF9CFCF93DF93282F30E0F901E255EF
:1001D000FF4F8491F901E656FF4FD491F901EA5798
:1001E000FF4FC491CC23A1F081110E94B900EC2FE4
:1001F000F0E0EE0FFF1FE458FF4FA591B491EC9192
:10020000ED2381E090E009F480E0DF91CF91089543
:1002100080E090E0FACF1F93CF93DF93282F30E058
:10022000F901E255FF4F8491F901E656FF4FD49151
:10023000F901EA57FF4FC491CC23A9F0162F811181
:100240000E94B900EC2FF0E0EE0FFF1FEE58FF4FB9
:10025000A591B4918FB7F894EC91111108C0D09585
:10026000DE23DC938FBFDF91CF911F910895DE2BAA
:10027000F8CFCF93DF9390E0FC01E656FF4F249137
:100280008A579F4FFC0184918823D1F090E0880F1A
:10029000991FFC01E859FF4FA591B491FC01EE585C
:1002A000FF4FC591D49161110EC09FB7F8948C9106
:1002B000E22FE0958E238C932881E223E8839FBF71
:1002C000DF91CF9108958FB7F894EC91E22BEC93E6
:1002D0008FBFF6CF3FB7F894809197039091980322
:1002E000A0919903B0919A0326B5A89B05C02F3F12
:1002F00019F00196A11DB11D3FBFBA2FA92F982F4C
:100300008827BC01CD01620F711D811D911D42E046
:10031000660F771F881F991F4A95D1F708958F920E
:100320009F92AF92BF92CF92DF92EF92FF926B01BA
:100330007C010E946A014B015C01C114D104E104FB
:10034000F104B9F00E946A01681979098A099B09C8
:10035000683E73408105910580F321E0C21AD108FF
:10036000E108F10888EE880E83E0981EA11CB11CFC
:10037000E4CFFF90EF90DF90CF90BF90AF909F9031
:100380008F900895089590E080E0089584E00E94A1
:10039000E200019719F584E00E94E200019739F428
:1003A00061E070E080E090E00E948F01F4CF81E096
:1003B00090E09093A8038093A70383E00E94E2005B
:1003C000019741F583E00E94E200019761F461E04A
:1003D00070E080E090E00E948F01F4CF1092A803BB
:1003E0001092A703EACF81E090E09093A40380935A
:1003F000A30382E00E94E2000197C1F482E00E9420
:10040000E200019761F461E070E080E090E00E941A
:100410008F01F4CF1092A4031092A303EACF81E0DE
:1004200090E09093A2038093A10308951092A203F9
:100430001092A10308958F929F92AF92BF920F9353
:100440001F93CF93DF93CDB7DEB7A1970FB6F89484
:10045000DEBF0FBECDBF19A2423008F44AE08E01C4
:100460000F5D1F4F842E912CB12CA12CA50194015E
:100470000E941B0AE62FB901CA01EA3044F5E05D8B
:10048000D801EE938D01232B242B252B79F790E0B7
:1004900080E0109769F0FD0101900020E9F73197A5
:1004A000AF014A1B5B0BBD018BEA93E00E948C00FD
:1004B000A1960FB6F894DEBF0FBECDBFDF91CF91EE
:1004C0001F910F91BF90AF909F908F900895E95C1E
:1004D000D7CFFC0101900020E9F73197AF01481B0D
:1004E000590BBC018BEA93E00C948C00CF93DF9303
:1004F000EC0160E08E810E940B0161E08E810E9420
:100500000B0160E08E810E940B018BE891E0019766
:10051000F1F7DF91CF910895CF92DF92EF92FF92A2
:100520000F931F93CF93DF936C017C0187E0E80E5C
:10053000F11CD0E0C0E0062F10E0B8010C2E02C084
:10054000759567950A94E2F76170F70181917F01D3
:100550000E940B012196C430D10579F7C601DF91C5
:10056000CF911F910F91FF90EF90DF90CF900C945F
:100570007602CF92DF92EF92FF920F931F93CF9369
:10058000DF93EC01F62E642F8C810E940B018D818C
:100590008F3F19F060E00E940B010F2D10E08F8556
:1005A00084FF25C06E0187E0C80ED11CF12CE12C20
:1005B000B8010E2C02C0759567950A94E2F7617038
:1005C000F60181916F010E940B01FFEFEF1AFF0A04
:1005D00088E0E816F10461F7CE01DF91CF911F9119
:1005E0000F91FF90EF90DF90CF900C947602B801BE
:1005F00084E0759567958A95E1F7CE010E948C029B
:100600006F2DCE01DF91CF911F910F91FF90EF9051
:10061000DF90CF900C948C0240E0682F8BEA93E03F
:100620000C94B90281E00E940C038BE39FE10197D7
:10063000F1F70895CF93DF93613029F09091BA03D9
:1006400098609093BA036093BE031092BF0390E446
:100650009093C0038093C103805C8093C20361E0E8
:100660008091AF030E9439018091B0038F3F19F050
:1006700061E00E94390161E08091B1030E9439017B
:10068000CBEAD3E09E012B5A33408091BA0384FD1C
:100690000BC084E090E021962817390744F461E00C
:1006A0008E810E943901EECF88E090E0F4CF8BE399
:1006B0009DE00197F1F760E08091AF030E940B018C
:1006C00060E08091B1030E940B018091B0038F3FE5
:1006D00019F060E00E940B018091BA0384FD34C0E0
:1006E00063E08BEA93E00E948C02CBE4D6E4CE0177
:1006F0000197F1F763E08BEA93E00E948C02219767
:10070000F1F763E08BEA93E00E948C0283E592E0CC
:100710000197F1F762E08BEA93E00E948C028091EE
:10072000BA0380620E940C0384E08093BB038CE0D8
:100730000E940C030E94120382E08093BC0386E0B7
:10074000DF91CF910C940C0380620E940C038BE428
:1007500096E40197F1F78091BA0380620E940C033E
:1007600083E592E00197F1F78091BA0380620E94DD
:100770000C03D5CF643008F063E09091BE03691795
:1007800010F06FEF690FE62FF0E0E555FC4F94890C
:10079000890F80680C940C03CF93DF930E9412039F
:1007A000C4E0D0E02197C430D10540F46C2F80E044
:1007B0000E94BA038EE191E00E946902CE01019687
:1007C000049748F46C2F6F5F80E00E94BA038CE2BC
:1007D00091E00E946902CE010296049748F46C2FC2
:1007E0006E5F80E00E94BA038AE391E00E94690292
:1007F000CE010396049748F46C2F6D5F80E00E9451
:10080000BA0388E491E00E946902CC3F8FEFD807D9
:1008100048F06C2F6C5F80E00E94BA0385E591E0A0
:100820000E946902CE010596049748F46C2F6B5F15
:1008300080E00E94BA0385E691E00E946902CE0141
:100840000696049748F46C2F6A5F80E00E94BA0312
:1008500084E791E00E946902CE010796049748F46C
:100860006C2F695F80E00E94BA0384E891E00E94E7
:100870006902CE010896049748F46C2F685F80E007
:100880000E94BA038EE891E00E946902CE010996A7
:10089000049748F46C2F675F80E00E94BA0389E9EF
:1008A00091E00E946902CE010A96049748F46C2FE9
:1008B000665F80E00E94BA0385EA91E00E946902C7
:1008C000CE010B96049748F46C2F655F80E00E9480
:1008D000BA0384EB91E00E94690268EC70E080E06A
:1008E00090E00E948F010E941203C43F8FEFD8074F
:1008F00009F058CF0E941203C4E0D0E02197C43021
:10090000D10540F46C2F80E00E94BA0383EC91E0A3
:100910000E946902CE010196049748F46C2F6F5F24
:1009200080E00E94BA0389EC91E00E946902CE0146
:100930000296049748F46C2F6E5F80E00E94BA0321
:100940008AED91E00E946902CE010396049748F473
:100950006C2F6D5F80E00E94BA0383EC92E00E94EE
:100960006902CC3F8FEFD80748F06C2F6C5F80E0B6
:100970000E94BA038BEE91E00E946902CE010596B7
:10098000049748F46C2F6B5F80E00E94BA0383EFFA
:1009900091E00E946902CE010696049748F46C2FFC
:1009A0006A5F80E00E94BA0384E092E00E946902DC
:1009B000CE010796049748F46C2F695F80E00E948F
:1009C000BA0385EC92E00E946902CE010896049772
:1009D00048F46C2F685F80E00E94BA0386E192E0E1
:1009E0000E946902CE010996049748F46C2F675F54
:1009F00080E00E94BA0384EC92E00E946902CE017A
:100A00000A96049748F46C2F665F80E00E94BA0350
:100A100082E292E00E946902CE010B96049748F4AC
:100A20006C2F655F80E00E94BA0382E392E00E942F
:100A3000690268EC70E080E090E00E948F010E9403
:100A40001203C43F8FEFD80709F058CF0E9412035A
:100A5000C4E0D0E02197C430D10540F46C2F80E091
:100A60000E94BA038CE392E00E946902CE010196D3
:100A7000049748F46C2F6F5F80E00E94BA0388E40B
:100A800092E00E946902CE010296049748F46C2F0E
:100A90006E5F80E00E94BA0385E592E00E946902E1
:100AA000CE010396049748F46C2F6D5F80E00E949E
:100AB000BA0383EC92E00E946902CC3F8FEFD80723
:100AC00048F06C2F6C5F80E00E94BA038DE592E0E5
:100AD0000E946902CE010596049748F46C2F6B5F63
:100AE00080E00E94BA038CE692E00E946902CE0187
:100AF0000696049748F46C2F6A5F80E00E94BA0360
:100B000084EC92E00E946902CE010796049748F4B3
:100B10006C2F695F80E00E94BA038CE792E00E942C
:100B20006902CE010896049748F46C2F685F80E054
:100B30000E94BA0388E892E00E946902CE010996F9
:100B4000049748F46C2F675F80E00E94BA0387EC3B
:100B500092E00E946902CE010A96049748F46C2F35
:100B6000665F80E00E94BA0389E992E00E94690210
:100B7000CE010B96049748F46C2F655F80E00E94CD
:100B8000BA0388EA92E00E94690268EC70E080E0B3
:100B900090E00E948F010E941203C43F8FEFD8079C
:100BA00009F058CFDF91CF9108958091A5039091DE
:100BB000A6038130910551F11CF4892B39F0089579
:100BC0008230910569F10397E9F1089560E080E0D2
:100BD0000E94BA0385EB92E00E94690261E080E026
:100BE0000E94BA0386EC92E00E94690262E080E013
:100BF0000E94BA0386EC92E00E94690263E080E002
:100C00000E94BA0386EC92E00C94690261E080E0F5
:100C10000E94BA0385EB92E00E94690260E0DFCF98
:100C200062E080E00E94BA0385EB92E00E946902D4
:100C300060E080E00E94BA0386EC92E00E946902C4
:100C400061E0D5CF63E080E00E94BA0385EB92E0DB
:100C50000E94690260E080E00E94BA0386EC92E0A4
:100C60000E94690261E080E00E94BA0386EC92E093
:100C70000E94690262E0C3CF41E00E94B90281E0B4
:100C800090E00895CF92DF92EF92FF926C01990F5E
:100C9000EE08FF08F7FE16C041E06DE28BEA93E034
:100CA0000E94B90266277727CB016C197D098E094E
:100CB0009F094AE00E941B020196FF90EF90DF908F
:100CC000CF9008954AE0C701B601FF90EF90DF9002
:100CD000CF900C941B0260E081E00E94BA0387EB86
:100CE00092E00E94690260E081E00E94BA0388EC11
:100CF00092E00E94690261E081E00E94BA0387EB02
:100D000092E00E94690261E081E00E94BA0388EDEE
:100D100092E00E94690261E08AE00E94BA0382ECDC
:100D200092E00E94690261E08AE00E94BA03809129
:100D30009F039091A0030E94420662E081E00E941E
:100D4000BA0387EB92E00E94690262E081E00E94B0
:100D5000BA0381EE92E00E94690262E08CE00E9498
:100D6000BA0384EC92E00E94690262E08CE00E9487
:100D7000BA0380919D0390919E030E9442060E94B7
:100D8000D5058091A5039091A603892B41F463E0DA
:100D900081E00E94BA038CEE92E00E946902809189
:100DA000A5039091A6030197029740F463E081E0C8
:100DB0000E94BA038CEF92E00E9469028091A50321
:100DC0009091A603039741F463E081E00E94BA0387
:100DD0008CE093E00E9469028091100190911101D2
:100DE000892B41F463E081E00E94BA038CE093E038
:100DF0000C94690208951F920F920FB60F9211245E
:100E00002F933F938F939F93AF93BF9380919303BF
:100E100090919403A0919503B09196033091920321
:100E200023E0230F2D3758F50196A11DB11D209306
:100E300092038093930390939403A0939503B093AC
:100E400096038091970390919803A0919903B09194
:100E50009A030196A11DB11D809397039093980367
:100E6000A0939903B0939A03BF91AF919F918F91F3
:100E70003F912F910F900FBE0F901F90189526E86D
:100E8000230F0296A11DB11DD2CF789484B5826044
:100E900084BD84B5816084BD85B5826085BD85B51E
:100EA000816085BD80916E00816080936E0010929C
:100EB0008100809181008260809381008091810017
:100EC00081608093810080918000816080938000A8
:100ED0008091B10084608093B1008091B000816006
:100EE0008093B00080917A00846080937A00809132
:100EF0007A00826080937A0080917A00816080938A
:100F00007A0080917A00806880937A001092C10004
:100F100064E084E10E941A0380E40E940C03C8E0AC
:100F2000D1E000E111E069918BEA93E00E943C0678
:100F30000C171D07C1F788E40E940C03C0E0D1E044
:100F400069918BEA93E00E943C0681E0C830D807A3
:100F5000B9F70E9412030E941203C5E0D0E06C2F83
:100F6000625080E00E94BA038CE193E00E94690223
:100F70002197C430D10541F06C2F80E00E94BA0364
:100F80008DE293E00E94690268EC70E080E090E0FE
:100F90000E948F010E941203C230D10501F760E068
:100FA00081E00E94BA038CE193E00E94690261E053
:100FB00081E00E94BA038DE293E00E94690262E33D
:100FC00070E080E090E00E948F01D0E0C0E061E03E
:100FD0008C2F0E94BA0360E08BEA93E00E943C06EB
:100FE00062E370E080E090E00E948F0161E08C2F6E
:100FF0000E94BA0386EC92E00E946902219661E0A9
:101000008C2F0E94BA0361E08BEA93E00E943C06B9
:1010100062E370E080E090E00E948F01CF30D10564
:10102000B1F662E080E00E94BA038EE393E00E9492
:10103000690263E080E00E94BA038AE493E00E94C0
:10104000690262E370E080E090E00E948F0162E359
:1010500070E080E090E00E948F0162E370E080E049
:1010600090E00E948F010E9412036AEF70E080E01E
:1010700090E00E948F0160E084E00E94390160E00E
:1010800083E00E94390160E082E00E943901C0E003
:10109000D0E001E010E00E94C6018091A903909188
:1010A000AA03009741F0019709F435C1209799F3FD
:1010B0000E940000F0CF8091A9039091AA03892B90
:1010C000A9F740919F035091A00320919D03309177
:1010D0009E03429FC001439F900D529F900D11248B
:1010E00090939C0380939B0360E081E00E94BA038D
:1010F00087EB92E00E94690260E081E00E94BA03FF
:101100008DE493E00E94690261E081E00E94BA03ED
:1011100087EB92E00E94690261E081E00E94BA03DD
:101120008AE593E00E94690261E088E00E94BA03C8
:1011300080EC92E00E94690261E088E00E94BA03BC
:1011400080919B0390919C030E94420662E081E0A3
:101150000E94BA0387EB92E00E94690262E081E09C
:101160000E94BA0388EC92E00E9469020E94D505B1
:101170008091A5039091A603029741F463E081E07A
:101180000E94BA0382E693E00E9469028091A5035F
:101190009091A603039741F463E081E00E94BA03B3
:1011A00082E793E00E9469028091A5039091A603D3
:1011B000029740F463E081E00E94BA0382E893E082
:1011C0000E9469020E94C6018091A7039091A80322
:1011D000019761F48091A5039091A6038430910555
:1011E00028F401969093A6038093A5038091A3030E
:1011F0009091A4030197B1F48091A5039091A60367
:10120000039711F40E94CC038091A5039091A6034B
:10121000029741F41093AA030093A9031092A60326
:101220001092A5038091A1039091A203019709F068
:1012300042CF8091A5039091A6038430910508F0D8
:101240003ACF01979093A6038093A50334CF809162
:10125000A5039091A6030297F1F510921101109247
:1012600010018091100190911101892BA1F50E942C
:101270006B060E94C6018091A7039091A803019775
:1012800049F480919D0390919E03019790939E0352
:1012900080939D038091A3039091A40381309105D5
:1012A00021F490931101809310018091A1039091FA
:1012B000A203019749F480919D0390919E030196AA
:1012C00090939E0380939D0361E070E080E090E046
:1012D0000E948F01C6CF8091A5039091A60303972A
:1012E00041F41092AA031092A9031092A60310923F
:1012F000A5038091A1039091A203019761F48091CD
:10130000A5039091A6038430910528F4019790934A
:10131000A6038093A5038091A9039091AA03019746
:1013200009F0C4CE0E946B060E94C6018091A703FB
:101330009091A803019761F48091A5039091A60371
:101340008430910528F401969093A6038093A50319
:101350008091A3039091A403019759F68091A5036E
:101360009091A603892B11F40E94CC038091A503D0
:101370009091A603019709F06ACF10921101109283
:1013800010018091100190911101892B09F05FCF1C
:101390000E946B060E94C6018091A7039091A8034A
:1013A000019749F480919F039091A0030197909336
:1013B000A00380939F038091A3039091A4038130A5
:1013C000910521F490931101809310018091A10364
:1013D0009091A203019749F480919F039091A003FB
:1013E00001969093A00380939F0361E070E080E0FA
:1013F00090E00E948F01C5CFEBEAF3E013821282E6
:1014000086E191E09183808388E084838FEF8583F8
:1014100089E086838AE087838BE080878CE0818700
:101420008DE082871386148615861686178661E0FE
:1014300080E10C941A03A1E21A2EAA1BBB1BFD012A
:101440000DC0AA1FBB1FEE1FFF1FA217B307E407A3
:10145000F50720F0A21BB30BE40BF50B661F771FFB
:10146000881F991F1A9469F76095709580959095DB
:101470009B01AC01BD01CF010895EE0FFF1F059048
:0A148000F491E02D0994F894FFCFD9
:10148A000E0E0E04040E04040E0E041F040A1100AC
:10149A000100000000003C068C00C301C20150613B
:1014AA00726120696E677265736172006461746F3C
:1014BA007320616C206D656E7500646562652075C8
:1014CA0074696C697A6172006C6F7320626F746FF1
:1014DA006E65732000706F736963696F6E61646F04
:1014EA007320656E00656C20696E666572696F723D
:1014FA00206465006C612070616E74616C6C612C93
:10150A0020656E00656C20756C74696D6F0072657C
:10151A006E676C6F6E20736500696E6469636172D1
:10152A0061206C610066756E63696F6E2061637419
:10153A0075616C006465206361646120626F746F19
:10154A006E2E002B204D6173007375626520656CE9
:10155A0020637572736F72206F0073756D61206CF2
:10156A0061207661726961626C65002D204D656E3D
:10157A006F730062616A6120656C20637572736FB4
:10158A0072206F007265737461206C6120766172DB
:10159A006961626C65004F4B3D20696E67726573C5
:1015AA00610061797564613D206D7565737472615E
:1015BA0020006C612061797564612E006D6F646929
:1015CA006669636172203D006D6F64696669636173
:1015DA00206C6F730076616C6F72657300766F6C46
:1015EA007665723D207675656C766500616C207053
:1015FA0061736F2070726576696F2E005475726F11
:10160A007269616C657320004A45502E496E636F9A
:10161A0072706F726174656400434F505952494742
:10162A0048542032303233002A2A2A2A203A2920E2
:10163A002A2A2A2A003E002020202020202020209A
:10164A0020202020202020004D4F44494649434174
:10165A0052204441544F530050726563696F3D24D0
:10166A000043414E54492F4D45533D002B20202025
:10167A00202061797564612020202D002B202020F4
:10168A006D6F64696669636172202D002B202020CA
:10169A0020766F6C7665722020202D005475746F49
:1016AA007269616C6573204A455020200020202011
:1016BA002070726573656E7461202020200050616D
:1016CA006E616C65732F4D6573003B280050616E27
:1016DA00616C65732F6D65733A00434F53544F3AEB
:1016EA0024002B2020204D4F444946494341522093
:1016FA002D002B2020206179756461202020202074
:10170A002D002B2020204E41444120202020202043
:02171A002D00A0
:00000001FF
